:100000000C9438000C9455000C9455000C94550039
:100010000C9455000C9455000C9455000C9455000C
:100020000C9455000C9455000C9455000C945500FC
:100030000C9455000C9455000C9455000C945500EC
:100040000C9455000C9455000C9455000C945500DC
:100050000C9455000C9455000C9455000C945500CC
:100060000C9455000C9455000C9455000C945500BC
:1000700011241FBECFEFD4E0DEBFCDBF12E0A0E061
:10008000B1E0EAEDFAE002C005900D92A233B107AB
:10009000D9F722E0A2E3B2E001C01D92A833B20773
:1000A000E1F70E9458020C946B050C9400005F9BD2
:1000B000FECF8CB108955D9BFECF8CB9089510BC26
:1000C0008FE189B988E18AB98EE880BD089501C0C1
:1000D0008CB15F99FDCF089580E885BF88E086BF29
:1000E00080E280BF089580EB87BB81E58DB90895DC
:1000F0008FB9779BFECF08951FB8779BFECF8FB146
:100100000895CF93C82F88B38F7E88BB83E00E9469
:1001100078008C2F0E9478000E947C0098B3906138
:1001200098BBCF91089588B38F7E88BB80EC0E94E6
:10013000780088B3806188BB0895CF93DF93D82F70
:10014000C62F88B38F7E88BB82E00E9478008D2FF7
:100150000E9478008C2F0E94780088B3806188BB51
:10016000DF91CF91089598B39F7E98BB0E9478004D
:1001700088B3806188BB08951F93CF93DF93182FB6
:10018000D62FC42F88B38F7E88BB85E00E9478006D
:10019000812F0E9478008D2F0E9478008C2F0E9462
:1001A000780088B3806188BBDF91CF911F9108955B
:1001B000EF92FF920F931F93CF93DF93CDB7DEB7EC
:1001C0002B970FB6F894DEBF0FBECDBFE982FA823F
:1001D0000B831C832D833E834F83588769877A87DF
:1001E0008B876E2D82E30E949D006A8181E30E94CD
:1001F0009D000B81602F85E30E949D0010E00CC0E4
:10020000E4E0F0E0EC0FFD1FE10FF11D608186E3FB
:10021000810F0E949D001F5F101790F38EE091E008
:100220009F938F930E945D0268E080E30E949D008F
:1002300081E890E00E94B3000F900F902B960FB6CC
:10024000F894DEBF0FBECDBFDF91CF911F910F910C
:10025000FF90EF900895EF92FF921F93CF93DF935B
:100260007C018CE290E00E94810004C08CE290E06E
:100270000E94810080FFFACF81E690E00E94810019
:10028000F701818382E690E00E948100F70180837C
:1002900085E690E00E948100F701828310E00BC0A8
:1002A000C12FD0E0CE018A599F4F0E948100CE0D10
:1002B000DF1D8B831F5FF7018281181788F340E0F1
:1002C00050E061E070E08CE290E00E94BC00DF91C1
:1002D000CF911F91FF90EF900895CF93C82F0E9468
:1002E00073000E9493002FEF8FEF9EE0215080401B
:1002F0009040E1F700C000008EE090E00E94810095
:10030000807E803831F082E191E00E94730281E0CA
:1003100031C086E491E09F938F930E945D026C2F21
:100320008FE00E949D008EE090E00E9481001F926D
:100330008F9381E691E09F938F930E945D0263E02B
:100340008AE20E949D0061EB89E20E949D0065E0C7
:1003500088E20E949D006FE18BE20E949D0060E6B2
:1003600080E60E949D000F900F900F900F900F90CD
:100370000F9080E0CF910895DF92EF92FF920F935C
:100380001F93CF93DF93CDB7DEB72B970FB6F894BB
:10039000DEBF0FBECDBF0E946C000E945F000E94B6
:1003A000670080E091E090933502809334028DEBFA
:1003B00091E09F938F930E945D0280E40E946D0103
:1003C0000F900F90811108C082EC91E09F938F9362
:1003D0000E945D020F900F90D12C80E289831A82D7
:1003E00088E08B83DC8221E02D0D2D8332E03D0DF2
:1003F0003E8343E04D0D4F8354E05D0D588765E02B
:100400006D0D698776E07D0D7A8787E08D0D8B878E
:100410006894EE24E5F8F12C08E01D2D0E94D80028
:1004200080E090E00E942B0180E00DC0E82FF0E01A
:10043000A4E0B0E0AC0FBD1FAE0FBF1F2C919381A5
:10044000291305C08F5F883088F381E001C080E008
:10045000882349F08BED91E09F938F930E945D027A
:100460000F900F9008C083EF91E09F938F930E94AD
:100470005D020F900F902FEF8FEF9EE02150804094
:100480009040E1F700C0000028E0D20E84E68D1510
:1004900008F0A3CF2B960FB6F894DEBF0FBECDBFEA
:1004A000DF91CF911F910F91FF90EF90DF90089512
:1004B0000E94BC0180E090E00895A0E0B0E0E3E697
:1004C000F2E00C944405AE014B5F5F4FFA0161917D
:1004D0007191AF0180913402909135020E94A30284
:1004E000E2E00C9460050F931F93CF93DF93E091AC
:1004F0003402F0913502238121FF1BC08C01D0E032
:10050000C0E0F80181918F01609134027091350251
:10051000DB011896ED91FC911997882331F009952C
:10052000892B79F3DFEFCFEFECCF8AE00995892BA8
:1005300019F08FEF9FEF02C08D2F9C2FDF91CF918D
:100540001F910F910895ABE0B0E0E9EAF2E00C945E
:1005500034056C017B018A01FC01178216828381BC
:1005600081FFCCC1CE0101963C01F6019381F701D8
:1005700093FD859193FF81917F01882309F4BAC18E
:10058000853239F493FD859193FF81917F01853206
:1005900029F4B60190E00E949A04E7CF912C212C17
:1005A000312CFFE1F315D8F08B3279F038F480323A
:1005B00079F08332A1F4232D20611DC08D3261F0CA
:1005C000803369F4232D216016C0832D8260382E7C
:1005D000E32DE4603E2E2AC0F32DF8601DC037FCE9
:1005E0002DC020ED280F2A3040F08E32B9F436FCB1
:1005F00081C1232D2064322E19C036FE06C08AE048
:10060000989E200D1124922E11C0EAE02E9E200DFE
:100610001124222EF32DF0623F2E08C08C3621F4D7
:10062000832D8068382E02C0883641F4F70193FD8F
:10063000859193FF81917F018111B3CF982F9F7D89
:100640009554933028F40C5F1F4F9FE399830DC09E
:10065000833631F0833771F0833509F059C021C0FA
:10066000F801808189830E5F1F4F88248394912C29
:10067000530113C02801F2E04F0E511CF801A08075
:10068000B18036FE03C0692D70E002C06FEF7FEFCE
:10069000C5010E948F044C018201F32DFF773F2E8C
:1006A00016C0280122E0420E511CF801A080B18042
:1006B00036FE03C0692D70E002C06FEF7FEFC50109
:1006C0000E9484044C01F32DF0683F2E820133FC1C
:1006D0001BC0822D90E088169906B0F4B60180E226
:1006E00090E00E949A042A94F4CFF50137FC85919A
:1006F00037FE81915F01B60190E00E949A042110BB
:100700002A9421E0821A91088114910471F7E8C0BB
:10071000843611F0893641F5F80137FE07C0608153
:100720007181828193810C5F1F4F08C0608171814C
:10073000072E000C880B990B0E5F1F4FF32DFF76D1
:100740003F2E97FF09C090958095709561957F4FDA
:100750008F4F9F4FF0683F2E2AE030E0A3010E94A8
:10076000D604882E861845C0853731F4232D2F7E78
:10077000B22E2AE030E025C0932D997FB92E8F3616
:10078000C1F018F4883579F0B5C0803719F0883792
:1007900021F0B0C0E92FE061BE2EB4FE0DC0FB2DEC
:1007A000F460BF2E09C034FE0AC0292F2660B22E85
:1007B00006C028E030E005C020E130E002C020E1C2
:1007C00032E0F801B7FE07C06081718182819381B8
:1007D0000C5F1F4F06C06081718180E090E00E5F6A
:1007E0001F4FA3010E94D604882E8618FB2DFF7789
:1007F0003F2E36FE0DC0232D2E7FA22E891458F4D5
:1008000034FE0BC032FC09C0832D8E7EA82E05C09D
:10081000B82CA32C03C0B82C01C0B92CA4FE0FC067
:10082000FE01E80DF11D8081803321F49A2D997E1F
:10083000A92E09C0A2FE06C0B394B39404C08A2DA9
:10084000867809F0B394A3FC11C0A0FE06C0B214D0
:1008500088F4280C922C9B180EC0B21460F4B601D8
:1008600080E290E00E949A04B394F7CFB21418F497
:100870002B1802C0982C212CA4FE10C0B60180E3D6
:1008800090E00E949A04A2FE17C0A1FC03C088E772
:1008900090E002C088E590E0B6010CC08A2D867811
:1008A00059F0A1FE02C08BE201C080E2A7FC8DE2FC
:1008B000B60190E00E949A04891438F4B60180E3EE
:1008C00090E00E949A049A94F7CF8A94F301E80D7D
:1008D000F11D8081B60190E00E949A048110F5CF4D
:1008E000222009F442CEB60180E290E00E949A04F0
:1008F0002A94F6CFF6018681978102C08FEF9FEF91
:100900002B96E2E10C945005FC010590615070407B
:100910000110D8F7809590958E0F9F1F0895FC01C8
:100920006150704001900110D8F7809590958E0F1E
:100930009F1F08950F931F93CF93DF93FB01238194
:1009400021FD03C08FEF9FEF2CC022FF16C0468110
:100950005781248135814217530744F4A081B18126
:100960009D012F5F3F4F318320838C9326813781F8
:100970002F5F3F4F3783268314C08B01EC01FB01AF
:100980000084F185E02D0995892BE1F6D8011696B2
:100990008D919C911797019617969C938E9316971D
:1009A000CE01DF91CF911F910F910895FA01AA27EF
:1009B000283051F1203181F1E8946F936E7F6E5FA2
:1009C0007F4F8F4F9F4FAF4FB1E03ED0B4E03CD050
:1009D000670F781F891F9A1FA11D680F791F8A1F33
:1009E000911DA11D6A0F711D811D911DA11D20D09A
:1009F00009F468943F912AE0269F11243019305D54
:100A00003193DEF6CF010895462F4770405D419344
:100A1000B3E00FD0C9F7F6CF462F4F70405D4A3391
:100A200018F0495D31FD4052419302D0A9F7EACF59
:100A3000B4E0A6959795879577956795BA95C9F788
:100A400000976105710508959B01AC010A2E06947B
:100A50005795479537952795BA95C9F7620F731F34
:100A6000841F951FA01D08952F923F924F925F9271
:100A70006F927F928F929F92AF92BF92CF92DF92AE
:100A8000EF92FF920F931F93CF93DF93CDB7DEB713
:100A9000CA1BDB0B0FB6F894DEBF0FBECDBF0994A7
:100AA0002A88398848885F846E847D848C849B84FE
:100AB000AA84B984C884DF80EE80FD800C811B810C
:100AC000AA81B981CE0FD11D0FB6F894DEBF0FBE3B
:0A0AD000CDBFED010895F894FFCFAB
:100ADA0000000002000000005B0057000000200A2E
:100AEA000D00204D435032353135206973204E4F69
:100AFA005420696E20636F6E6669677572617469E6
:100B0A006F6E206D6F646520616674657220726510
:100B1A00736574202100204D4350323531352069E8
:100B2A007320696E20636F6E666967206D6F6465F6
:100B3A00002043414E4D4F4445203D202564200A64
:100B4A00006C696E65006E7974742070726F67004C
:100B5A0076616C756520636831005468652076613A
:100B6A006C7565206F66206D794E756D62657220B1
:100B7A0069733A2025642025642025642025640AA7
:100B8A000D200070696B6B0070756E670074657379
:100B9A0074007375636365737366756C6C79206929
:100BAA006E697469616C697A6573006D65737361E6
:100BBA0067657320617265207468652073616D656D
:100BCA003A2900212121206D6573736167657320BD
:100BDA00617265206E6F74207468652073616D653B
:100BEA003A2828280074657374696E672041444363
:100BFA000066696E69736865642074657374696EEA
:020C0A00670081
:00000001FF
