S011000041544D6567613136322E737265636B
S11300000C9438000C9455000C9455000C94550035
S11300100C9455000C9455000C9455000C94550008
S11300200C9455000C9455000C9455000C945500F8
S11300300C9455000C9455000C9455000C945500E8
S11300400C9455000C9455000C9455000C945500D8
S11300500C9455000C9455000C9455000C945500C8
S11300600C9455000C9455000C9455000C945500B8
S113007011241FBECFEFD4E0DEBFCDBF12E0A0E05D
S1130080B1E0ECEEF9E002C005900D92A430B107A6
S1130090D9F722E0A4E0B2E001C01D92AA30B20771
S11300A0E1F70E9409010C94F4040C940000282F39
S11300B090E080E006C0880F322F3170832B2695A4
S11300C09F5F9830C0F30895DF92EF92FF920F93F1
S11300D01F93CF93DF9382E191E00E9499010E94E4
S11300E073017C010E947801C0E0D0E000E010E0E0
S11300F025C08C2F0E945700D82E0E947301ED2D2D
S1130100F0E0F85E808320812817B9F099279F9347
S11301108F931F922F931F92DF9288E291E09F9317
S11301208F930E9483010F5F1F4F8DB79EB7089670
S11301300FB6F8949EBF0FBE8DBF2196C11598E0EF
S1130140D907B8F2C7010E947801C0E0D0E0E12CE1
S1130150F12C25C08C2F0E945700D82E0E947301C9
S1130160ED2DF0E0F85E20812817C1F099279F93C8
S11301708F931F922F931F92DF9281E691E09F93BA
S11301808F930E9483018FEFE81AF80A8DB79EB708
S113019008960FB6F8949EBF0FBE8DBF2196C11569
S11301A098E0D907B8F2FF92EF921F930F938EE96C
S11301B091E09F938F930E9483010F900F900F9073
S11301C00F900F900F90DF91CF911F910F91FF909F
S11301D0EF90DF9008955F9BFECF8CB108955D9BF7
S11301E0FECF8CB908950F931F93072F182F292F33
S11301F0332727FD3A9500BD69B988E18AB98EE8AD
S113020080BD1F910F91089501C08CB15F99FDCFFE
S1130210089585B7806885BF6FE170E080E090E065
S11302200E94F3000E94040184E091E0909307028D
S11302308093060287EF91E09F938F930E9483013E
S11302400E9464000F900F9080E090E008958F92D8
S11302509F92AF92BF92CF92DF92EF92FF92CF9391
S1130260DF93EC01688179818A819B816115710535
S11302708105910521F464E279ED8BE597E02DE1A8
S113028033EF41E050E00E945A0449015A019B01B6
S1130290AC01A7EAB1E40E9479046B017C01ACEEE5
S11302A0B4EFA50194010E948704DC01CB018C0DFD
S11302B09D1DAE1DBF1DB7FF03C00197A109B04826
S11302C088839983AA83BB839F77DF91CF91FF9023
S11302D0EF90DF90CF90BF90AF909F908F90089554
S11302E00E942701089580E091E00E94270108956B
S11302F0A0E0B0E08093000190930101A09302017B
S1130300B09303010895A0E0B0E0E9E8F1E00C94B3
S11303109C04AE014B5F5F4FFA0161917191AF0193
S113032080910602909107020E94C901E2E00C94B8
S1130330B8040F931F93CF93DF93E0910602F091DB
S11303400702238121FF1BC08C01D0E0C0E0F8012B
S113035081918F016091060270910702DB0118966A
S1130360ED91FC911997882331F00995892B79F344
S1130370DFEFCFEFECCF8AE00995892B19F08FEFEF
S11303809FEF02C08D2F9C2FDF91CF911F910F9172
S11303900895ABE0B0E0EFECF1E00C948C046C0158
S11303A07B018A01FC0117821682838181FFCCC103
S11303B0CE0101963C01F6019381F70193FD8591ED
S11303C093FF81917F01882309F4BAC1853239F4FE
S11303D093FD859193FF81917F01853229F4B601C4
S11303E090E00E94C003E7CF912C212C312CFFE137
S11303F0F315D8F08B3279F038F4803279F0833207
S1130400A1F4232D20611DC08D3261F0803369F485
S1130410232D216016C0832D8260382EE32DE460E5
S11304203E2E2AC0F32DF8601DC037FC2DC020EDF0
S1130430280F2A3040F08E32B9F436FC81C1232DC6
S11304402064322E19C036FE06C08AE0989E200D24
S11304501124922E11C0EAE02E9E200D1124222E8A
S1130460F32DF0623F2E08C08C3621F4832D806872
S1130470382E02C0883641F4F70193FD859193FF2D
S113048081917F018111B3CF982F9F7D9554933033
S113049028F40C5F1F4F9FE399830DC0833631F01E
S11304A0833771F0833509F059C021C0F801808188
S11304B089830E5F1F4F88248394912C530113C0AA
S11304C02801F2E04F0E511CF801A080B18036FEE5
S11304D003C0692D70E002C06FEF7FEFC5010E9479
S11304E0B5034C018201F32DFF773F2E16C028017E
S11304F022E0420E511CF801A080B18036FE03C0F8
S1130500692D70E002C06FEF7FEFC5010E94AA035E
S11305104C01F32DF0683F2E820133FC1BC0822D69
S113052090E088169906B0F4B60180E290E00E944B
S1130530C0032A94F4CFF50137FC859137FE8191ED
S11305405F01B60190E00E94C00321102A9421E0CB
S1130550821A91088114910471F7E8C0843611F06D
S1130560893641F5F80137FE07C0608171818281C7
S113057093810C5F1F4F08C060817181072E000CAE
S1130580880B990B0E5F1F4FF32DFF763F2E97FFBD
S113059009C090958095709561957F4F8F4F9F4FBF
S11305A0F0683F2E2AE030E0A3010E94FC03882E6D
S11305B0861845C0853731F4232D2F7EB22E2AE0CC
S11305C030E025C0932D997FB92E8F36C1F018F4F1
S11305D0883579F0B5C0803719F0883721F0B0C07C
S11305E0E92FE061BE2EB4FE0DC0FB2DF460BF2EDA
S11305F009C034FE0AC0292F2660B22E06C028E0A6
S113060030E005C020E130E002C020E132E0F80132
S1130610B7FE07C060817181828193810C5F1F4F97
S113062006C06081718180E090E00E5F1F4FA301DE
S11306300E94FC03882E8618FB2DFF773F2E36FE82
S11306400DC0232D2E7FA22E891458F434FE0BC026
S113065032FC09C0832D8E7EA82E05C0B82CA32C95
S113066003C0B82C01C0B92CA4FE0FC0FE01E80DD4
S1130670F11D8081803321F49A2D997EA92E09C021
S1130680A2FE06C0B394B39404C08A2D867809F000
S1130690B394A3FC11C0A0FE06C0B21488F4280CC5
S11306A0922C9B180EC0B21460F4B60180E290E064
S11306B00E94C003B394F7CFB21418F42B1802C0ED
S11306C0982C212CA4FE10C0B60180E390E00E9477
S11306D0C003A2FE17C0A1FC03C088E790E002C0DB
S11306E088E590E0B6010CC08A2D867859F0A1FE09
S11306F002C08BE201C080E2A7FC8DE2B60190E06B
S11307000E94C003891438F4B60180E390E00E948B
S1130710C0039A94F7CF8A94F301E80DF11D808108
S1130720B60190E00E94C0038110F5CF222009F4A5
S113073042CEB60180E290E00E94C0032A94F6CF34
S1130740F6018681978102C08FEF9FEF2B96E2E13D
S11307500C94A804FC010590615070400110D8F776
S1130760809590958E0F9F1F0895FC0161507040F5
S113077001900110D8F7809590958E0F9F1F0895D2
S11307800F931F93CF93DF93FB01238121FD03C0BC
S11307908FEF9FEF2CC022FF16C046815781248122
S11307A035814217530744F4A081B1819D012F5F25
S11307B03F4F318320838C93268137812F5F3F4FB6
S11307C03783268314C08B01EC01FB010084F1857F
S11307D0E02D0995892BE1F6D80116968D919C910F
S11307E01797019617969C938E931697CE01DF91D7
S11307F0CF911F910F910895FA01AA27283051F142
S1130800203181F1E8946F936E7F6E5F7F4F8F4F3D
S11308109F4FAF4FB1E03ED0B4E03CD0670F781F9C
S1130820891F9A1FA11D680F791F8A1F911DA11D81
S11308306A0F711D811D911DA11D20D009F46894BA
S11308403F912AE0269F11243019305D3193DEF662
S1130850CF010895462F4770405D4193B3E00FD018
S1130860C9F7F6CF462F4F70405D4A3318F0495D03
S113087031FD4052419302D0A9F7EACFB4E0A695E6
S11308809795879577956795BA95C9F70097610508
S1130890710508959B01AC010A2E0694579547955E
S11308A037952795BA95C9F7620F731F841F951F53
S11308B0A01D0895052E97FB1EF400940E94710458
S11308C057FD07D00E94C30407FC03D04EF40C94D8
S11308D0710450954095309521953F4F4F4F5F4F90
S11308E0089590958095709561957F4F8F4F9F4F98
S11308F008950E94E504A59F900DB49F900DA49FB8
S1130900800D911D11240895B7FF0C9479040E9461
S11309107904821B930B08952F923F924F925F921A
S11309206F927F928F929F92AF92BF92CF92DF92FB
S1130930EF92FF920F931F93CF93DF93CDB7DEB760
S1130940CA1BDB0B0FB6F894DEBF0FBECDBF0994F4
S11309502A88398848885F846E847D848C849B844B
S1130960AA84B984C884DF80EE80FD800C811B8159
S1130970AA81B981CE0FD11D0FB6F894DEBF0FBE88
S1130980CDBFED010895A1E21A2EAA1BBB1BFD01E8
S11309900DC0AA1FBB1FEE1FFF1FA217B307E4075A
S11309A0F50720F0A21BB30BE40BF50B661F771FB2
S11309B0881F991F1A9469F7609570958095909592
S11309C09B01AC01BD01CF010895A29FB001B39F6B
S11309D0C001A39F700D811D1124911DB29F700D44
S10F09E0811D1124911D0895F894FFCF8F
S11309EC010000000000000200000000EF00EB001A
S11309FC00005374617274696E67205352414D2028
S1130A0C746573742E2E2E00577269746520706889
S1130A1C617365206572726F723A206578745F72C7
S1130A2C616D5B2534645D203D20253032582028CF
S1130A3C73686F756C642062652025303258290AFE
S1130A4C0052657472696576616C207068617365B7
S1130A5C206572726F723A206578745F72616D5B97
S1130A6C2534645D203D2025303258202873686F6E
S1130A7C756C642062652025303258290A00535263
S1130A8C414D207465737420636F6D706C6574656F
S1130A9C642077697468200A253464206572726F47
S1130AAC727320696E207772697465207068617343
S1130ABC6520616E64200A253464206572726F723D
S1130ACC7320696E2072657472696576616C20702E
S1130ADC686173650A0A00616C6C61687520616BEE
S1070AEC62617200CD
S9030000FC
