:100000000C9438000C9442000C9442000C94420072
:100010000C9442000C9442000C9442000C94420058
:100020000C9442000C9442000C9442000C94420048
:100030000C9442000C9442000C9442000C94420038
:100040000C9442000C9442000C9442000C94420028
:100050000C9442000C9442000C9442000C94420018
:100060000C9442000C9442000C9442000C94420008
:1000700011241FBECFEFD4E0DEBFCDBF0E944400ED
:100080000C945A000C9400008AB381608ABB8BB335
:1000900081608BBB83EC99E00197F1F700C0000011
:1000A0008BB38E7F8BBB83EC99E00197F1F700C097
:0800B0000000EDCFF894FFCF32
:00000001FF
