S011000041544D6567613136322E737265636B
S11300000C9426010C9443010C9443010C94430179
S11300100C9443010C9443010C9443010C9443014C
S11300200C9443010C9443010C9443010C9443013C
S11300300C9443010C9443010C9443010C9443012C
S11300400C9443010C9443010C9443010C9443011C
S11300500C9443010C9443010C9443010C9443010C
S11300600C9443010C9443010C9443010C944301FC
S1130070000000000000005F0000000700070014FB
S11300807F147F14242A7F2A1223130864623649BA
S11300905522500005030000001C224100004122AB
S11300A01C00082A1C2A0808083E080800503000D2
S11300B00008080808080060600000201008040216
S11300C03E5149453E00427F40004261514946212C
S11300D041454B311814127F1027454545393C4A98
S11300E049493001710905033649494936064949E8
S11300F0291E00363600000056360000000814227F
S11301004114141414144122140800020151090664
S1130110324979413E7E1111117E7F494949363E6B
S1130120414141227F4141221C7F494949417F0984
S11301300901013E414151327F0808087F00417F97
S113014041002040413F017F081422417F4040404C
S1130150407F0204027F7F0408107F3E4141413EFC
S11301607F090909063E4151215E7F091929464646
S11301704949493101017F01013F4040403F1F206F
S113018040201F7F2018207F631408146303047821
S11301900403615149454300007F414102040810B2
S11301A02041417F000004020102044040404040DD
S11301B0000102040020545454787F4844443838E1
S11301C044444420384444487F3854545418087EE6
S11301D0090102081454543C7F0804047800447D47
S11301E040002040443D00007F10284400417F40EF
S11301F0007C041804787C080404783844444438A7
S11302007C14141408081414187C7C08040408488A
S113021054545420043F4440203C4040207C1C2043
S113022040201C3C4030403C44281028440C505092
S1130230503C4464544C44000836410000007F00A4
S113024000004136080002010302010011241FBE10
S1130250CFEFD4E0DEBFCDBF11E0A0E0B1E0E8E82D
S1130260F4E002C005900D92AA36B107D9F721E057
S1130270AAE6B1E001C01D92AA36B207E1F70E94D6
S113028040020C9442020C940000809300100895E4
S11302908093001208958EEA0E94450181EA0E942B
S11302A045018AED0E94450182E10E94450188ECE6
S11302B00E94450188EA0E9445018FE30E9445019E
S11302C085ED0E94450180E80E94450181E80E9475
S11302D0450180E50E94450189ED0E94450181E2C6
S11302E00E94450180E20E94450182E00E9445018E
S11302F08BED0E94450180E30E9445018DEA0E9436
S1130300450180E00E94450184EA0E94450186EA95
S11303100E9445018FEA0E9445010895CF93DF931F
S1130320EB01806B0E9445018C2F8F700E94450168
S1130330CE01807F99279595879595958795959575
S113034087959595879580610E944501DF91CF91AE
S113035008950F931F93CF93DF9360E070E080E0E4
S113036090E00E948E0100E010E011C060E070E0B7
S1130370C8010E948E01C0E0D0E004C080E00E9469
S113038048012196C038D105CCF30F5F1F4F0830C8
S1130390110564F3DF91CF911F910F9108951F937D
S11303A0CF93DF93182FC0E0D0E012C0812F90E0EC
S11303B08097FC01EE0FFF1FEE0FFF1FE80FF91FE0
S11303C0EC0FFD1FE059FF4F84910E9448012196D4
S11303D0C530D1055CF3DF91CF911F9108950F9340
S11303E01F93CF93DF938C01CB0160E070E00E94F8
S11303F08E01C0E0D0E007C0F801EC0FFD1F808142
S11304000E94CF012196F80101900020E9F731976D
S1130410E01BF10BCE17DF0778F3DF91CF911F912B
S11304200F91089580E885BF88E086BF80E280BF91
S113043008950E9412020E944B010E94A90160E0EB
S113044070E082E491E00E94EF0161E070E087E4F3
S113045091E00E94EF012FEF8FEF9EE0215080404A
S11304609040E1F700C000000E94A9012FEF8FEF38
S11304709EE0215080409040E1F700C00000DFCFB3
S10B04800E941902F894FFCF59
S11304886C696E65006E7974742070726F6700769B
S1130498616C756520636831005468652076616C09
S11304A87565206F66206D794E756D626572206979
S11304B8733A2025642025642025642025640A0DC8
S11304C8200070756E670070696B6B0074657374D7
S11304D8696E67204144430066696E6973686564A0
S10D04E82074657374696E670000E8
S9030000FC
