:100000000C9438000C9455000C9455000C94550039
:100010000C9455000C9455000C9455000C9455000C
:100020000C9455000C9455000C9455000C945500FC
:100030000C9455000C9455000C9455000C945500EC
:100040000C9455000C9455000C9455000C945500DC
:100050000C9455000C9455000C9455000C945500CC
:100060000C9455000C9455000C9455000C945500BC
:1000700011241FBECFEFD4E0DEBFCDBF13E0A0E060
:10008000B1E0E6EFFBE002C005900D92A63AB107A1
:10009000D9F723E0A6EAB3E001C01D92A63BB20760
:1000A000E1F70E94B1020C94F9050C94000081B3B1
:1000B000806181BB83E480938B0089E180938A0017
:1000C0001092870081E0809386000895CF93DF939C
:1000D000CDB7DEB760970FB6F894DEBF0FBECDBFC9
:1000E000E0E0F4E11082808190E09A878987808146
:1000F00090E09C878B87808190E09E878D878081B0
:1001000090E0988B8F8788E0FE013996DE0111968A
:1001100001900D928A95E1F729813A814B815C81AA
:100120006D817E818F81988560960FB6F894DEBFD1
:100130000FBECDBFDF91CF9108955F9BFECF8CB1F5
:1001400008955D9BFECF8CB9089510BC8FE189B9ED
:1001500088E18AB98EE880BD089501C08CB15F99AD
:10016000FDCF089580E885BF88E086BF80E280BF2C
:10017000089580EB87BB81E58DB908958FB9779B92
:10018000FECF08951FB8779BFECF8FB10895EF92F1
:10019000FF920F931F93CF93DF93CDB7DEB72B97CB
:1001A0000FB6F894DEBF0FBECDBFE982FA820B8393
:1001B0001C832D833E834F83588769877A878B877B
:1001C0001F92EF928EE091E09F938F930E94EB023B
:1001D0008B81E82EF12C1F928F9389E191E09F9300
:1001E0008F930E94EB020FB6F894DEBF0FBECDBF17
:1001F00000E010E019C0E4E0F0E0EC0FFD1FE00FBC
:10020000F11F80811F928F931F930F9383E391E0DF
:100210009F938F930E94EB020F5F1F4F0F900F90E1
:100220000F900F900F900F900E151F0524F387E786
:1002300093E09F938F930E94EB020F900F902B9669
:100240000FB6F894DEBF0FBECDBFDF91CF911F91E7
:100250000F91FF90EF900895CF93C82F88B38F7EB2
:1002600088BB83E00E94BE008C2F0E94BE000E94CB
:10027000C20098B3906198BBCF91089588B38F7EE8
:1002800088BB80EC0E94BE0088B3806188BB089563
:10029000CF93DF93D82FC62F88B38F7E88BB82E0A1
:1002A0000E94BE008D2F0E94BE008C2F0E94BE00B7
:1002B00088B3806188BBDF91CF91089598B39F7E0A
:1002C00098BB0E94BE0088B3806188BB08951F93CD
:1002D000CF93DF93182FD62FC42F88B38F7E88BB80
:1002E00085E00E94BE00812F0E94BE008D2F0E94DB
:1002F000BE008C2F0E94BE0088B3806188BBDF9156
:10030000CF911F910895EF92FF920F931F93CF9378
:10031000DF93CDB7DEB72B970FB6F894DEBF0FBED5
:10032000CDBFE982FA820B831C832D833E834F83EA
:10033000588769877A878B876E2D82E30E944801F0
:100340006A8181E30E9448010B81602F85E30E944E
:10035000480110E00CC0E4E0F0E0EC0FFD1FE10FFD
:10036000F11D608186E3810F0E9448011F5F101715
:1003700090F381E890E00E945E012B960FB6F8940E
:10038000DEBF0FBECDBFDF91CF911F910F91FF90C8
:10039000EF900895EF92FF921F93CF93DF937C012C
:1003A0008CE290E00E942C0180FD07C080E090E08C
:1003B00031C08CE290E00E942C0180FFFACF81E6F0
:1003C00090E00E942C01F701818382E690E00E9478
:1003D0002C01F701808385E690E00E942C01F70153
:1003E000828310E00BC0C12FD0E0CE018A599F4F0D
:1003F0000E942C01CE0DDF1D8B831F5FF7018281D0
:10040000181788F340E050E061E070E08CE290E083
:100410000E946701DF91CF911F91FF90EF900895A7
:10042000CF93C82F0E94B9000E943E012FEF8FEF9B
:100430009EE0215080409040E1F700C000008EE037
:1004400090E00E942C01807E803831F083E491E0BE
:100450000E94010381E031C087E791E09F938F9371
:100460000E94EB0263EC8AE20E94480161EB89E2A0
:100470000E94480165E088E20E9448016C2F8FE0ED
:100480000E9448018EE090E00E942C011F928F9301
:1004900082E991E09F938F930E94EB026FE18BE2E0
:1004A0000E94480160E680E60E9448010F900F908C
:1004B0000F900F900F900F9080E0CF910895CF9301
:1004C000DF93CDB7DEB728970FB6F894DEBF0FBE27
:1004D000CDBF0E94660029833A834B835C832B81C6
:1004E0003C8189819A812F5731093093AB03209346
:1004F000AA038F5791099093A7038093A603289688
:100500000FB6F894DEBF0FBECDBFDF91CF91089537
:10051000EF92FF920F931F93CF93DF93CDB7DEB788
:1005200063970FB6F894DEBF0FBECDBF0E94660082
:10053000362FE12CF12C04E0142F482F58896989BB
:100540007A898B890E94830163960FB6F894DEBF87
:100550000FBECDBFDF91CF911F910F91FF90EF9014
:1005600008950E94B2000E94A5000E94AD000E9462
:10057000570080E00E941002811108C08EE593E0D0
:100580009F938F930E94EB020F900F900E945F0247
:1005900080E091E09093B3038093B2038AE793E005
:1005A0009F938F930E94EB020F900F900E948802FE
:1005B000C0E0D0E0CE010E94CA01E880F9800A8143
:1005C0001B812C813D814E815F81688579858A857B
:1005D0000E94C700EBCFA0E0B0E0E1EFF2E00C94A6
:1005E000D205AE014B5F5F4FFA0161917191AF018E
:1005F0008091B2039091B3030E943103E2E00C9426
:10060000EE050F931F93CF93DF93E091B203F09128
:10061000B303238121FF1BC08C01D0E0C0E0F801AF
:1006200081918F016091B2037091B303DB01189641
:10063000ED91FC911997882331F00995892B79F375
:10064000DFEFCFEFECCF8AE00995892B19F08FEF20
:100650009FEF02C08D2F9C2FDF91CF911F910F91A3
:100660000895ABE0B0E0E7E3F3E00C94C2056C0161
:100670007B018A01FC0117821682838181FFCCC134
:10068000CE0101963C01F6019381F70193FD85911E
:1006900093FF81917F01882309F4BAC1853239F42F
:1006A00093FD859193FF81917F01853229F4B601F5
:1006B00090E00E942805E7CF912C212C312CFFE1FE
:1006C000F315D8F08B3279F038F4803279F0833238
:1006D000A1F4232D20611DC08D3261F0803369F4B7
:1006E000232D216016C0832D8260382EE32DE46017
:1006F0003E2E2AC0F32DF8601DC037FC2DC020ED22
:10070000280F2A3040F08E32B9F436FC81C1232DF7
:100710002064322E19C036FE06C08AE0989E200D55
:100720001124922E11C0EAE02E9E200D1124222EBB
:10073000F32DF0623F2E08C08C3621F4832D8068A3
:10074000382E02C0883641F4F70193FD859193FF5E
:1007500081917F018111B3CF982F9F7D9554933064
:1007600028F40C5F1F4F9FE399830DC0833631F04F
:10077000833771F0833509F059C021C0F8018081B9
:1007800089830E5F1F4F88248394912C530113C0DB
:100790002801F2E04F0E511CF801A080B18036FE16
:1007A00003C0692D70E002C06FEF7FEFC5010E94AA
:1007B0001D054C018201F32DFF773F2E16C0280145
:1007C00022E0420E511CF801A080B18036FE03C029
:1007D000692D70E002C06FEF7FEFC5010E94120526
:1007E0004C01F32DF0683F2E820133FC1BC0822D9B
:1007F00090E088169906B0F4B60180E290E00E947D
:1008000028052A94F4CFF50137FC859137FE8191B4
:100810005F01B60190E00E94280521102A9421E092
:10082000821A91088114910471F7E8C0843611F09E
:10083000893641F5F80137FE07C0608171818281F8
:1008400093810C5F1F4F08C060817181072E000CDF
:10085000880B990B0E5F1F4FF32DFF763F2E97FFEE
:1008600009C090958095709561957F4F8F4F9F4FF0
:10087000F0683F2E2AE030E0A3010E946405882E34
:10088000861845C0853731F4232D2F7EB22E2AE0FD
:1008900030E025C0932D997FB92E8F36C1F018F422
:1008A000883579F0B5C0803719F0883721F0B0C0AD
:1008B000E92FE061BE2EB4FE0DC0FB2DF460BF2E0B
:1008C00009C034FE0AC0292F2660B22E06C028E0D7
:1008D00030E005C020E130E002C020E132E0F80164
:1008E000B7FE07C060817181828193810C5F1F4FC9
:1008F00006C06081718180E090E00E5F1F4FA30110
:100900000E946405882E8618FB2DFF773F2E36FE49
:100910000DC0232D2E7FA22E891458F434FE0BC057
:1009200032FC09C0832D8E7EA82E05C0B82CA32CC6
:1009300003C0B82C01C0B92CA4FE0FC0FE01E80D05
:10094000F11D8081803321F49A2D997EA92E09C052
:10095000A2FE06C0B394B39404C08A2D867809F031
:10096000B394A3FC11C0A0FE06C0B21488F4280CF6
:10097000922C9B180EC0B21460F4B60180E290E095
:100980000E942805B394F7CFB21418F42B1802C0B4
:10099000982C212CA4FE10C0B60180E390E00E94A8
:1009A0002805A2FE17C0A1FC03C088E790E002C0A2
:1009B00088E590E0B6010CC08A2D867859F0A1FE3A
:1009C00002C08BE201C080E2A7FC8DE2B60190E09C
:1009D0000E942805891438F4B60180E390E00E9453
:1009E00028059A94F7CF8A94F301E80DF11D8081D0
:1009F000B60190E00E9428058110F5CF222009F46D
:100A000042CEB60180E290E00E9428052A94F6CFFB
:100A1000F6018681978102C08FEF9FEF2B96E2E16E
:100A20000C94DE05FC010590615070400110D8F770
:100A3000809590958E0F9F1F0895FC016150704026
:100A400001900110D8F7809590958E0F9F1F089503
:100A50000F931F93CF93DF93FB01238121FD03C0ED
:100A60008FEF9FEF2CC022FF16C046815781248153
:100A700035814217530744F4A081B1819D012F5F56
:100A80003F4F318320838C93268137812F5F3F4FE7
:100A90003783268314C08B01EC01FB010084F185B0
:100AA000E02D0995892BE1F6D80116968D919C9140
:100AB0001797019617969C938E931697CE01DF9108
:100AC000CF911F910F910895FA01AA27283051F173
:100AD000203181F1E8946F936E7F6E5F7F4F8F4F6F
:100AE0009F4FAF4FB1E03ED0B4E03CD0670F781FCE
:100AF000891F9A1FA11D680F791F8A1F911DA11DB3
:100B00006A0F711D811D911DA11D20D009F46894EB
:100B10003F912AE0269F11243019305D3193DEF693
:100B2000CF010895462F4770405D4193B3E00FD049
:100B3000C9F7F6CF462F4F70405D4A3318F0495D34
:100B400031FD4052419302D0A9F7EACFB4E0A69517
:100B50009795879577956795BA95C9F70097610539
:100B6000710508959B01AC010A2E0694579547958F
:100B700037952795BA95C9F7620F731F841F951F84
:100B8000A01D08952F923F924F925F926F927F9295
:100B90008F929F92AF92BF92CF92DF92EF92FF928D
:100BA0000F931F93CF93DF93CDB7DEB7CA1BDB0B39
:100BB0000FB6F894DEBF0FBECDBF09942A883988DE
:100BC00048885F846E847D848C849B84AA84B984E5
:100BD000C884DF80EE80FD800C811B81AA81B981F1
:100BE000CE0FD11D0FB6F894DEBF0FBECDBFED0105
:060BF0000895F894FFCF08
:100BF6000000000200000000A1009D0000006964E2
:100C06005F6C3A2025692C20006D657373616765FA
:100C16005F6C656774685F62797465733A202569ED
:100C26002C2000646174615B25695D3A202569208A
:100C36002C2000204D435032353135206973204E2B
:100C46004F5420696E20636F6E66696775726174B2
:100C5600696F6E206D6F64652061667465722072BF
:100C660065736574202100204D435032353135209F
:100C7600697320696E20636F6E666967206D6F64A5
:100C860065002043414E4D4F4445203D20256420BC
:100C96000A006C696E65006E7974742070726F67F5
:100CA6000076616C7565206368310054686520764E
:100CB600616C7565206F66206D794E756D62657223
:100CC6002069733A20256420256420256420256444
:100CD6000A0D200070696B6B0070756E67003E2010
:100CE6004E65772047616D65007465737400737592
:100CF600636365737366756C6C7920696E69746974
:100D0600616C697A6573006D6573736167657320DD
:100D1600617265207468652073616D653A290021EA
:100D26002121206D6573736167657320617265208B
:100D36006E6F74207468652073616D653A28282883
:100D46000073656E743A200074657374696E67206B
:100D56004144430066696E6973686564207465730F
:100D660074696E67006A6F79737469636B20736563
:100D76006E742078202569202C2079202569003E74
:100D860020496E737472756374696F6E73003E20CA
:100D960053636F7265626F617264003E20536574BF
:100DA600204475726174696F6E73004E6577676172
:100DB6006D6500706C617920666F723A2025692C2A
:100DC60020706C617965643A202569003E204D618A
:100DD600696E204D656E75003E2031352073656362
:100DE6006F6E6473003E203330207365636F6E64EC
:100DF60073003E203435207365636F6E6473003E66
:100E0600203630207365636F6E64730043757272AB
:100E1600656E742073746174653A09092025640A45
:100E26000D004E6578742073746174653A20090963
:100E36002025640A0D006A6F79737469636B2075E7
:100E46007020646F776E3A200925690A0D00737564
:100E5600636365737366756C6C7920696E69746912
:100E6600616C697A6573200A0D0074657374200AD3
:100E76000D004A6F20417276650053747564617384
:100E860073004B726973746F6666657200416C66B7
:060E9600004576656E00C8
:00000001FF
