:100000000C9426010C9443010C9443010C9443017D
:100010000C9443010C9443010C9443010C94430150
:100020000C9443010C9443010C9443010C94430140
:100030000C9443010C9443010C9443010C94430130
:100040000C9443010C9443010C9443010C94430120
:100050000C9443010C9443010C9443010C94430110
:100060000C9443010C9443010C9443010C94430100
:10007000000000000000005F0000000700070014FF
:100080007F147F14242A7F2A1223130864623649BE
:100090005522500005030000001C224100004122AF
:1000A0001C00082A1C2A0808083E080800503000D6
:1000B000000808080808006060000020100804021A
:1000C0003E5149453E00427F400042615149462130
:1000D00041454B311814127F1027454545393C4A9C
:1000E00049493001710905033649494936064949EC
:1000F000291E003636000000563600000008142283
:100100004114141414144122140800020151090668
:10011000324979413E7E1111117E7F494949363E6F
:10012000414141227F4141221C7F494949417F0988
:100130000901013E414151327F0808087F00417F9B
:1001400041002040413F017F081422417F40404050
:10015000407F0204027F7F0408107F3E4141413E00
:100160007F090909063E4151215E7F09192946464A
:100170004949493101017F01013F4040403F1F2073
:1001800040201F7F2018207F631408146303047825
:100190000403615149454300007F414102040810B6
:1001A0002041417F000004020102044040404040E1
:1001B000000102040020545454787F4844443838E5
:1001C00044444420384444487F3854545418087EEA
:1001D000090102081454543C7F0804047800447D4B
:1001E00040002040443D00007F10284400417F40F3
:1001F000007C041804787C080404783844444438AB
:100200007C14141408081414187C7C08040408488E
:1002100054545420043F4440203C4040207C1C2047
:1002200040201C3C4030403C44281028440C505096
:10023000503C4464544C44000836410000007F00A8
:1002400000004136080002010302010011241FBE14
:10025000CFEFD4E0DEBFCDBF11E0A0E0B1E0E6E833
:10026000F4E002C005900D92A030B107D9F721E06B
:10027000A0E0B1E001C01D92A030B207E1F70E94FA
:100280003F020C9441020C940000809300100895EA
:100290008093001208958EEA0E94450181EA0E942F
:1002A00045018AED0E94450182E10E94450188ECEA
:1002B0000E94450188EA0E9445018FE30E944501A2
:1002C00085ED0E94450180E80E94450181E80E9479
:1002D000450180E50E94450189ED0E94450181E2CA
:1002E0000E94450180E20E94450182E00E94450192
:1002F0008BED0E94450180E30E9445018DEA0E943A
:10030000450180E00E94450184EA0E94450186EA99
:100310000E9445018FEA0E9445010895CF93DF9323
:10032000EB01806B0E9445018C2F8F700E9445016C
:10033000CE01807F99279595879595958795959579
:1003400087959595879580610E944501DF91CF91B2
:100350000895CF93DF9360E070E080E090E00E942A
:100360008E01C0E0D0E00EC060E070E0CE010E94DF
:100370008E0104C080E00E9448012196C138D10559
:10038000CCF72196C830D1057CF3DF91CF91089549
:100390001F93CF93DF93182FC0E0D0E011C0812FBF
:1003A00090E0FC01EE0FFF1FEE0FFF1FE80FF91F9B
:1003B000EC0FFD1FE059FF4F84910E9448012196E8
:1003C000C530D10564F3DF91CF911F9108950F934C
:1003D0001F93CF93DF938C01C0E0D0E007C0F801FA
:1003E000EC0FFD1F80810E94C8012196F801019049
:1003F0000020E9F73197E01BF10BCE17DF0778F308
:10040000DF91CF911F910F91089580E885BF88E01B
:1004100086BF80E280BF0895CF93DF93CDB7DEB76C
:1004200064970FB6F894DEBF0FBECDBF0E940502E1
:100430000E944B010E94A90180E58A8389E68B8393
:1004400060E070E081E090E00E948E01CE010196B4
:100450000E94E7012FEF8FEF9EE0215080409040F7
:10046000E1F700C000000E94A9012FEF8FEF9EE08E
:10047000215080409040E1F700C00000DDCF0E9495
:060480000C02F894FFCF0E
:00000001FF
